{
  "contractName": "Greeter",
  "abi": [
    {
      "inputs": [],
      "payable": false,
      "stateMutability": "nonpayable",
      "type": "constructor"
    },
    {
      "constant": true,
      "inputs": [],
      "name": "greet",
      "outputs": [
        {
          "internalType": "string",
          "name": "",
          "type": "string"
        }
      ],
      "payable": false,
      "stateMutability": "view",
      "type": "function"
    },
    {
      "constant": false,
      "inputs": [
        {
          "internalType": "string",
          "name": "greeting",
          "type": "string"
        }
      ],
      "name": "setGreeting",
      "outputs": [],
      "payable": false,
      "stateMutability": "nonpayable",
      "type": "function"
    },
    {
      "constant": true,
      "inputs": [],
      "name": "owner",
      "outputs": [
        {
          "internalType": "address",
          "name": "",
          "type": "address"
        }
      ],
      "payable": false,
      "stateMutability": "view",
      "type": "function"
    }
  ],
  "bytecode": "0x60806040526040518060400160405280600d81526020017f48656c6c6f2c20576f726c6421000000000000000000000000000000000000008152506000908051906020019061004f9291906100a3565b5034801561005c57600080fd5b5033600160006101000a81548173ffffffffffffffffffffffffffffffffffffffff021916908373ffffffffffffffffffffffffffffffffffffffff160217905550610148565b828054600181600116156101000203166002900490600052602060002090601f016020900481019282601f106100e457805160ff1916838001178555610112565b82800160010185558215610112579182015b828111156101115782518255916020019190600101906100f6565b5b50905061011f9190610123565b5090565b61014591905b80821115610141576000816000905550600101610129565b5090565b90565b61040b806101576000396000f3fe608060405234801561001057600080fd5b50600436106100415760003560e01c80638da5cb5b14610046578063a413686214610090578063cfae321714610109575b600080fd5b61004e61018c565b604051808273ffffffffffffffffffffffffffffffffffffffff1673ffffffffffffffffffffffffffffffffffffffff16815260200191505060405180910390f35b610107600480360360208110156100a657600080fd5b81019080803590602001906401000000008111156100c357600080fd5b8201836020820111156100d557600080fd5b803590602001918460018302840111640100000000831117156100f757600080fd5b90919293919293905050506101b6565b005b61011161028f565b6040518080602001828103825283818151815260200191508051906020019080838360005b83811015610151578082015181840152602081019050610136565b50505050905090810190601f16801561017e5780820380516001836020036101000a031916815260200191505b509250505060405180910390f35b6000600160009054906101000a900473ffffffffffffffffffffffffffffffffffffffff16905090565b600160009054906101000a900473ffffffffffffffffffffffffffffffffffffffff1673ffffffffffffffffffffffffffffffffffffffff163373ffffffffffffffffffffffffffffffffffffffff1614610279576040517f08c379a00000000000000000000000000000000000000000000000000000000081526004018080602001828103825260208152602001807f4f776e61626c653a2063616c6c6572206973206e6f7420746865206f776e657281525060200191505060405180910390fd5b81816000919061028a929190610331565b505050565b606060008054600181600116156101000203166002900480601f0160208091040260200160405190810160405280929190818152602001828054600181600116156101000203166002900480156103275780601f106102fc57610100808354040283529160200191610327565b820191906000526020600020905b81548152906001019060200180831161030a57829003601f168201915b5050505050905090565b828054600181600116156101000203166002900490600052602060002090601f016020900481019282601f1061037257803560ff19168380011785556103a0565b828001600101855582156103a0579182015b8281111561039f578235825591602001919060010190610384565b5b5090506103ad91906103b1565b5090565b6103d391905b808211156103cf5760008160009055506001016103b7565b5090565b9056fea265627a7a72315820801fe3eb8a2b5aa1a305e867522734c5526a8a1a26553b43c18a0995311b76ab64736f6c63430005100032",
  "source": "// SPDX-License-Identifier: MIT\r\npragma solidity >= 0.4.0 < 0.9.0;\r\n\r\ncontract Greeter {\r\n\r\n  string private _greeting = \"Hello, World!\";\r\n  address private _owner;\r\n\r\n  constructor() public {\r\n    _owner = msg.sender;\r\n  }\r\n\r\n  modifier onlyOwner() {\r\n    require(\r\n      msg.sender == _owner,\r\n      \"Ownable: caller is not the owner\"\r\n    );\r\n    _;\r\n  }\r\n\r\n  function greet() external view returns(string memory) {\r\n    return _greeting;\r\n  }\r\n\r\n  function setGreeting(string calldata greeting) external onlyOwner {\r\n    _greeting = greeting;\r\n  }\r\n\r\n  function owner() public view returns(address) {\r\n    return _owner;\r\n  }\r\n}",
  "sourcePath": "/mnt/c/Users/yuuu1/develop/blockchain/greeter-dapp/contracts/Greeter.sol",
  "compiler": {
    "name": "solc",
    "version": "0.5.16+commit.9c3226ce.Emscripten.clang"
  },
  "schemaVersion": "3.4.4",
  "updatedAt": "2022-02-10T01:58:15.040Z",
  "networkType": "ethereum",
  "devdoc": {
    "methods": {}
  },
  "userdoc": {
    "methods": {}
  }
}